S01500004156525F33325F4472697665722E7372656397
S11300000C942A000C947C010C94A5010C94AC0172
S11300100C9479020C9450020C9447000C94470001
S11300200C9447000C9447000C94FE010C94270296
S11300300C9447000C949C000C94EE000C94C500A6
S11300400C94D5010C9447000C9447000C94470081
S11300500C94470011241FBECFE5D8E0DEBFCDBF0E
S113006010E0A0E6B0E0E8E4F5E002C005900D92EF
S1130070A436B107D9F720E0A4E6B0E001C01D9290
S1130080AA37B207E1F70E9449000C94A2020C942B
S11300900000609160007091610080916200909115
S11300A063000E947B0061E38CE290E00E9469019E
S11300B060E38CE290E00E9469018CE290E00E948F
S11300C07701803361F060916000709161008091EC
S11300D062009091630040E00E949300FFCF609122
S11300E0600070916100809162009091630041E032
S11300F00E949300F3CF0F931F93CF93DF93182F96
S1130100092FD62FC72F40E0682F8D2F972F0E94DD
S11301101701402F612F8D2F9C2FDF91CF911F91BD
S11301200F910C944C01262F423008F00895682F4B
S1130130822F972F0C944C011F920F920FB60F929F
S113014011242F933F934F935F936F937F938F93D8
S11301509F93AF93BF93EF93FF93E0916800F09167
S11301606900309709F00995FF91EF91BF91AF9124
S11301709F918F917F916F915F914F913F912F91BB
S11301800F900FBE0F901F9018951F920F920FB6ED
S11301900F9211242F933F934F935F936F937F9309
S11301A08F939F93AF93BF93EF93FF93E091660078
S11301B0F0916700309709F00995FF91EF91BF9195
S11301C0AF919F918F917F916F915F914F913F91EB
S11301D02F910F900FBE0F901F9018951F920F92A2
S11301E00FB60F9211242F933F934F935F936F9306
S11301F07F938F939F93AF93BF93EF93FF93E0917C
S11302006400F0916500309709F00995FF91EF9132
S1130210BF91AF919F918F917F916F915F914F911A
S11302203F912F910F900FBE0F901F901895FC01D6
S1130230413019F198F0423081F4218181E090E05D
S1130240062E01C0880F0A94EAF7982F90959223FE
S113025091839281982B928308950895218181E05E
S113026090E0062E01C0880F0A94EAF7282B218318
S113027092818095892382830895218181E090E091
S1130280062E01C0880F0A94EAF78095282321835B
S11302909281982392830895442371F04130C1F4EC
S11302A0FC01428121E030E0062E01C0220F0A94B5
S11302B0EAF7422B42830895FC01428121E030E0B9
S11302C0062E01C0220F0A94EAF7209524232283E4
S11302D008959FBB8EBB6DBB0FB607FE03C08FB7DF
S11302E08F778FBFE29AE19AE199FECF08959FBB81
S11302F08EBBE09A8DB308951F920F920FB60F92A2
S113030011242F933F934F935F936F937F938F9316
S11303109F93AF93BF93EF93FF93E0917000F0919D
S11303207100309709F00995FF91EF91BF91AF915A
S11303309F918F917F916F915F914F913F912F91F9
S11303400F900FBE0F901F901895E0916E00F091E2
S11303506F00309709F009951F920F920FB60F9214
S113036011242F933F934F935F936F937F938F93B6
S11303709F93AF93BF93EF93FF93E0916C00F09141
S11303806D00309709F00995FF91EF91BF91AF91FE
S11303909F918F917F916F915F914F913F912F9199
S11303A00F900FBE0F901F9018951F920F920FB6CB
S11303B00F9211242F933F934F935F936F937F93E7
S11303C08F939F93AF93BF93EF93FF93E0916A0052
S11303D0F0916B00309709F00995FF91EF91BF916F
S11303E0AF919F918F917F916F915F914F913F91C9
S11303F02F910F900FBE0F901F9018951F920F9280
S11304000FB60F9211242F933F934F935F936F93E3
S11304107F938F939F93AF93BF93EF93FF93E09159
S11304207600F0917700309709F00995FF91EF91EC
S1130430BF91AF919F918F917F916F915F914F91F8
S11304403F912F910F900FBE0F901F9018951F9200
S11304500F920FB60F9211242F933F934F935F93F4
S11304606F937F938F939F93AF93BF93EF93FF9378
S1130470E0917800F0917900309709F00995FF91A7
S1130480EF91BF91AF919F918F917F916F915F9108
S11304904F913F912F910F900FBE0F901F90189581
S11304A01F920F920FB60F9211242F933F934F93E5
S11304B05F936F937F938F939F93AF93BF93EF93C8
S11304C0FF93E0917400F0917500309709F009955D
S11304D0FF91EF91BF91AF919F918F917F916F9118
S11304E05F914F913F912F910F900FBE0F901F90EE
S11304F018951F920F920FB60F9211242F933F93CA
S11305004F935F936F937F938F939F93AF93BF9317
S1130510EF93FF93E0917200F0917300309709F02C
S11305200995FF91EF91BF91AF919F918F917F9129
S11305306F915F914F913F912F910F900FBE0F904C
S10B05401F901895F894FFCFF9
S10705483300040074
S9030000FC
