S01500004156525F33325F4472697665722E7372656397
S11300000C942A000C9477050C94A0050C94A70575
S11300100C9474060C944B060C9447000C94470003
S11300200C9447000C9447000C94F9050C94220698
S11300300C9447000C9482040C94D4040C94AB04E8
S11300400C94D0050C9447000C9447000C94470082
S11300500C94470011241FBECFE5D8E0DEBFCDBF0E
S113006010E0A0E6B0E0EAEAF0E102C005900D92EB
S1130070AE37B107D9F720E0AEE7B0E001C01D927A
S1130080A83AB207E1F70E94AF010C9453080C940C
S113009000000C94B401CF92DF92EF92FF92CF93C1
S11300A0DF931FBC88B7806288BF81EC8EBD08B621
S11300B005FEFDCF86B597B59093A1008093A0006F
S11300C088B7806288BF81E88EBD08B605FEFDCF83
S11300D086B597B5909397008093960088B7806211
S11300E088BF81EC8EBD08B605FEFDCF86B597B5F9
S11300F090939B0080939A0088B7806288BF1EBC4F
S11301008091A0009091A100609196007091970059
S11301108617970738F4C0919A00D0919B006C170A
S11301207D0760F00E94D40380E790E0DF91CF91D7
S1130130FF90EF90DF90CF900C942504681B790B0F
S11301407093990060939800C81BD90BD0939500C5
S1130150C093940080E090E00E9431076B017C0121
S1130160BE0180E090E00E9431079B01AC01C70111
S1130170B6010E949D0620E030E048EC52E40E9463
S1130180BF070E94050770939D0060939C008091B7
S113019060008C9F90018D9F300D112440E050E051
S11301A060E072E18AE790E00E94220830939F00A9
S11301B020939E0081E690E00E94250420919C00FB
S11301C030919D00ADECBCEC0E9444089695879557
S11301D09695879596958795805D0E941C03E0917E
S11301E09C00F0919D009F01ADECBCEC0E94440882
S11301F0969587959695879596958795AC01440F26
S1130200551F880F991F880F991F880F991F480F32
S1130210591FCF01841B950B805D0E941C0385E24E
S11302200E941C0361E082E00E946C0387E690E078
S11302300E94250420919E0030919F0036952795B9
S11302403695279536952795A5ECB0E20E9444088B
S1130250929582958F7089279F708927805D0E946F
S11302601C0320919E0030919F003695279536956A
S11302702795ABE7B4E10E944408FC01F695E795A5
S11302809F01ADECBCEC0E94440896958795969529
S1130290879596958795AC01440F551F880F991F34
S11302A0880F991F880F991F480F591FCF01841B6E
S11302B0950B805D0E941C0320919E0030919F004D
S11302C0ADECBCEC0E944408FC01F695E795F6956C
S11302D0E795F695E7959F010E94440896958795C2
S11302E09695879596958795AC01440F551F880F71
S11302F0991F880F991F880F991F480F591FCF0105
S1130300841B950B805D0E941C03E0919E00F0917C
S11303109F009F01ADECBCEC0E9444089695879524
S11303209695879596958795AC01440F551F880F30
S1130330991F880F991F880F991F480F591FCF01C4
S1130340841B950B805D0E941C038DE690E0DF9179
S1130350CF91FF90EF90DF90CF900C9425040E94F2
S113036049000E944B00FFCF2FEF81EE94E0215013
S113037080409040E1F700C0000060EF86E390E029
S11303800E944F0540E060E086E390E00E94FD0497
S113039040E062E086E390E00E94FD0440E061E01A
S11303A086E390E00E94FD04A9988FEC97E0019702
S11303B0F1F700C0000062E082E40E94520540E0D0
S11303C060E086E390E00E94320541E062E086E36B
S11303D090E00E9432058FE99FE00197F1F700C099
S11303E0000040E062E086E390E00E9432058FE97D
S11303F09FE00197F1F700C0000060E282E40E94F0
S1130400520540E060E086E390E00E94320541E05E
S113041062E086E390E00E9432058FE99FE0019755
S1130420F1F700C0000040E062E086E390E00E9443
S113043032058FE99FE00197F1F700C000008FECCF
S113044097E00197F1F700C000008FEC97E0019767
S1130450F1F700C0000068E282E40E94520540E027
S113046060E086E390E00E94320541E062E086E3CA
S113047090E00E9432058FE99FE00197F1F700C0F8
S1130480000040E062E086E390E00E9432058FE9DC
S11304909FE00197F1F700C0000060E882E40E9449
S11304A0520540E060E086E390E00E94320541E0BE
S11304B062E086E390E00E9432058FE99FE00197B5
S11304C0F1F700C0000040E062E086E390E00E94A3
S11304D032058FE99FE00197F1F700C000008FEC2F
S11304E097E00197F1F700C000008FEC97E00197C7
S11304F0F1F700C000006EE082E40E94520540E083
S113050060E086E390E00E94320541E062E086E329
S113051090E00E9432058FE99FE00197F1F700C057
S1130520000040E062E086E390E00E9432058FE93B
S11305309FE00197F1F700C0000060EE82E40E94A2
S1130540520540E060E086E390E00E94320541E01D
S113055062E086E390E00E9432058FE99FE0019714
S1130560F1F700C0000040E062E086E390E00E9402
S113057032058FE99FE00197F1F700C000008FEC8E
S113058097E00197F1F700C000008FEC97E0019726
S1130590F1F700C0000061E082E40E94520540E0EF
S11305A060E086E390E00E94320541E062E086E389
S11305B090E00E9432058FE99FE00197F1F700C0B7
S11305C0000040E062E086E390E00E9432058FE99B
S11305D09FE00197F1F700C0000060E182E40E940F
S11305E0520540E060E086E390E00E94320541E07D
S11305F062E086E390E00E9432058FE99FE0019774
S1130600F1F700C0000040E062E086E390E00E9461
S113061032058FE99FE00197F1F700C000008FECED
S113062097E00197F1F700C000008FE19EE4019785
S1130630F1F700C000000895CF93C82F682F82E41B
S11306400E94520541E060E086E390E00E9432059A
S113065041E062E086E390E00E9432058FE99FE08A
S11306600197F1F700C0000040E062E086E390E00B
S11306700E9432058FE99FE00197F1F700C0000066
S11306806C2F6295607F82E40E94520541E060E035
S113069086E390E00E94320541E062E086E390E068
S11306A00E9432058FE99FE00197F1F700C0000036
S11306B040E062E086E390E00E9432058FE99FE02B
S11306C00197F1F700C000008FEC97E00197F1F774
S11306D000C00000CF910895CF93813009F455C034
S11306E0823009F050C08FEF860F803108F457C074
S11306F0C0E060E882E40E94520540E060E086E3E6
S113070090E00E94320541E062E086E390E00E94BE
S113071032058FE99FE00197F1F700C0000040E047
S113072062E086E390E00E9432058FE99FE0019742
S1130730F1F700C000006C2F82E40E94520540E0F3
S113074060E086E390E00E94320541E062E086E3E7
S113075090E00E9432058FE99FE00197F1F700C015
S1130760000040E062E086E390E00E9432058FE9F9
S11307709FE00197F1F700C000008FEC97E001972C
S1130780F1F700C00000CF9108958FEF860F8031FC
S113079008F0AECF6158C62FC295C07FABCF61546D
S11307A0C62FC295C07FA6CF61E082E40E945205A5
S11307B040E060E086E390E00E94320541E062E0C0
S11307C086E390E00E9432058FE99FE00197F1F7FC
S11307D000C0000040E062E086E390E00E94320541
S11307E08FE99FE00197F1F700C0000060E182E427
S11307F00E94520540E060E086E390E00E943205EA
S113080041E062E086E390E00E9432058FE99FE0D8
S11308100197F1F700C0000040E062E086E390E059
S11308200E9432058FE99FE00197F1F700C00000B4
S11308308FEC97E00197F1F700C000008FE19EE490
S11308400197F1F700C0000008951F93CF93DF9341
S1130850FC011081112309F451C0EC012196612F90
S113086082E40E94520541E060E086E390E00E9449
S1130870320541E062E086E390E00E9432058FE9B0
S11308809FE00197F1F700C0000040E062E086E3DA
S113089090E00E943205EFE9FFE03197F1F700C0E4
S11308A00000612F6295607F82E40E94520541E05E
S11308B060E086E390E00E94320541E062E086E376
S11308C090E00E9432058FE99FE00197F1F700C0A4
S11308D0000040E062E086E390E00E943205EFE928
S11308E0FFE03197F1F700C000008FEC97E001972B
S11308F0F1F700C0000019911111B1CFDF91CF9130
S11309001F9108951F920F920FB60F9211242F93E7
S11309103F934F935F936F937F938F939F93AF9383
S1130920BF93EF93FF93E0918200F091830030979F
S113093009F00995FF91EF91BF91AF919F918F912C
S11309407F916F915F914F913F912F910F900FBEC7
S11309500F901F9018951F920F920FB60F921124AB
S11309602F933F934F935F936F937F938F939F93B3
S1130970AF93BF93EF93FF93E0918000F0918100D8
S1130980309709F00995FF91EF91BF91AF919F9135
S11309908F917F916F915F914F913F912F910F9024
S11309A00FBE0F901F9018951F920F920FB60F92C3
S11309B011242F933F934F935F936F937F938F9360
S11309C09F93AF93BF93EF93FF93E0917E00F091D9
S11309D07F00309709F00995FF91EF91BF91AF9196
S11309E09F918F917F916F915F914F913F912F9143
S11309F00F900FBE0F901F901895FC01413019F114
S1130A0098F0423081F4218181E090E0062E01C00B
S1130A10880F0A94EAF7982F9095922391839281F4
S1130A20982B928308950895218181E090E0062E09
S1130A3001C0880F0A94EAF7282B218392818095BC
S1130A40892382830895218181E090E0062E01C0EC
S1130A50880F0A94EAF780952823218392819823AA
S1130A6092830895442371F04130C1F4FC01428122
S1130A7021E030E0062E01C0220F0A94EAF7422B4F
S1130A8042830895FC01428121E030E0062E01C03A
S1130A90220F0A94EAF72095242322830895FC0167
S1130AA061830895607F823471F028F0833489F083
S1130AB08434A9F008958134C9F48BB38F708BBB4F
S1130AC08BB3862B8BBB88B38F7088BB88B3862B84
S1130AD088BB85B38F7085BB85B3862B85BB82B3FA
S1130AE08F7082BB82B3862B82BB089508951F92B8
S1130AF00F920FB60F9211242F933F934F935F934E
S1130B006F937F938F939F93AF93BF93EF93FF93D1
S1130B10E0918A00F0918B00309709F00995FF91DC
S1130B20EF91BF91AF919F918F917F916F915F9161
S1130B304F913F912F910F900FBE0F901F901895DA
S1130B40E0918800F0918900309709F009951F928F
S1130B500F920FB60F9211242F933F934F935F93ED
S1130B606F937F938F939F93AF93BF93EF93FF9371
S1130B70E0918600F0918700309709F00995FF9184
S1130B80EF91BF91AF919F918F917F916F915F9101
S1130B904F913F912F910F900FBE0F901F9018957A
S1130BA01F920F920FB60F9211242F933F934F93DE
S1130BB05F936F937F938F939F93AF93BF93EF93C1
S1130BC0FF93E0918400F0918500309709F0099536
S1130BD0FF91EF91BF91AF919F918F917F916F9111
S1130BE05F914F913F912F910F900FBE0F901F90E7
S1130BF018951F920F920FB60F9211242F933F93C3
S1130C004F935F936F937F938F939F93AF93BF9310
S1130C10EF93FF93E0919000F0919100309709F0E9
S1130C200995FF91EF91BF91AF919F918F917F9122
S1130C306F915F914F913F912F910F900FBE0F9045
S1130C401F9018951F920F920FB60F9211242F9395
S1130C503F934F935F936F937F938F939F93AF9340
S1130C60BF93EF93FF93E0919200F091930030973C
S1130C7009F00995FF91EF91BF91AF919F918F91E9
S1130C807F916F915F914F913F912F910F900FBE84
S1130C900F901F9018951F920F920FB60F92112468
S1130CA02F933F934F935F936F937F938F939F9370
S1130CB0AF93BF93EF93FF93E0918E00F0918F0079
S1130CC0309709F00995FF91EF91BF91AF919F91F2
S1130CD08F917F916F915F914F913F912F910F90E1
S1130CE00FBE0F901F9018951F920F920FB60F9280
S1130CF011242F933F934F935F936F937F938F931D
S1130D009F93AF93BF93EF93FF93E0918C00F09187
S1130D108D00309709F00995FF91EF91BF91AF9144
S1130D209F918F917F916F915F914F913F912F91FF
S1130D300F900FBE0F901F9018950CD0E6C0DED018
S1130D4040F0D5D030F021F45F3F19F0C7C0511105
S1130D5010C1CAC0EBD098F39923C9F35523B1F35A
S1130D60951B550BBB27AA2762177307840738F016
S1130D709F5F5F4F220F331F441FAA1FA9F333D075
S1130D800E2E3AF0E0E830D091505040E695001C29
S1130D90CAF729D0FE2F27D0660F771F881FBB1FE5
S1130DA0261737074807AB07B0E809F0BB0B802DBF
S1130DB0BF01FF2793585F4F2AF09E3F510568F00B
S1130DC08DC0D7C05F3FECF3983EDCF386957795F2
S1130DD06795B795F7959F5FC9F7880F911D96950D
S1130DE0879597F90895E1E0660F771F881FBB1F69
S1130DF0621773078407BA0720F0621B730B840B16
S1130E00BA0BEE1F88F7E095089598D088F09F57A5
S1130E1090F0B92F9927B751A0F0D1F0660F771F42
S1130E20881F991F1AF0BA95C9F712C0B13081F022
S1130E309FD0B1E008959CC0672F782F8827B85FB2
S1130E4039F0B93FCCF3869577956795B395D9F783
S1130E503EF490958095709561957F4F8F4F9F4F8D
S1130E600895E89409C097FB3EF490958095709599
S1130E7061957F4F8F4F9F4F9923A9F0F92F96E9E2
S1130E80BB279395F695879577956795B795F11157
S1130E90F8CFFAF4BB0F11F460FF1BC06F5F7F4FF4
S1130EA08F4F9F4F16C0882311F096E911C0772306
S1130EB021F09EE8872F762F05C0662371F096E80F
S1130EC0862F70E060E02AF09A95660F771F881FDE
S1130ED0DAF7880F9695879597F9089597F99F679C
S1130EE080E870E060E008959FEF80EC08950024AE
S1130EF00A941616170618060906089500240A947B
S1130F0012161306140605060895092E0394000C00
S1130F1011F4882352F0BB0F40F4BF2B11F460FF8F
S1130F2004C06F5F7F4F8F4F9F4F089557FD9058B8
S1130F30440F551F59F05F3F71F04795880F97FB99
S1130F40991F61F09F3F79F0879508951216130653
S1130F501406551FF2CF4695F1DF08C01616170682
S1130F601806991FF1CF86957105610508940895B7
S1130F70E894BB2766277727CB0197F908950BD010
S1130F80C4CFB5DF28F0BADF18F0952309F0A6CF57
S1130F90ABCF1124EECFCADFA0F3959FD1F3950F09
S1130FA050E0551F629FF001729FBB27F00DB11DE9
S1130FB0639FAA27F00DB11DAA1F649F6627B00D79
S1130FC0A11D661F829F2227B00DA11D621F739F62
S1130FD0B00DA11D621F839FA00D611D221F749F70
S1130FE03327A00D611D231F849F600D211D822FB7
S1130FF0762F6A2F11249F5750408AF0E1F08823FE
S11310004AF0EE0FFF1FBB1F661F771F881F91500A
S11310105040A9F79E3F510570F060CFAACF5F3FC3
S1131020ECF3983EDCF3869577956795B795F7953D
S1131030E7959F5FC1F7FE2B880F911D96958795C5
S113104097F90895A1E21A2EAA1BBB1BFD010DC03E
S1131050AA1FBB1FEE1FFF1FA217B307E407F50764
S113106020F0A21BB30BE40BF50B661F771F881F40
S1131070991F1A9469F760957095809590959B01D6
S1131080AC01BD01CF010895A29FB001B39FC0017F
S1131090A39F700D811D1124911DB29F700D811DA0
S10D10A01124911D0895F894FFCF68
S11310AA01647574793A00667265713A00485A00A7
S11110BA6F7574206F662072616E67650000AA
S9030000FC
