S01500004156525F33325F4472697665722E7372656397
S11300000C942A000C94C7000C94F0000C94F70094
S11300100C94C4010C949B010C9447000C9447006D
S11300200C9447000C9447000C9449010C94720101
S11300300C9447000C944C000C949E000C94750096
S11300400C9420010C9447000C9447000C94470036
S11300500C94470011241FBECFE5D8E0DEBFCDBF0E
S113006010E0A0E6B0E0EEEDF3E002C005900D92E2
S1130070A036B107D9F720E0A0E6B0E001C01D9298
S1130080A637B207E1F70E9449000C94ED010C94E5
S1130090000080E090E008951F920F920FB60F9237
S11300A011242F933F934F935F936F937F938F9379
S11300B09F93AF93BF93EF93FF93E0916400F0910C
S11300C06500309709F00995FF91EF91BF91AF91C9
S11300D09F918F917F916F915F914F913F912F915C
S11300E00F900FBE0F901F9018951F920F920FB68E
S11300F00F9211242F933F934F935F936F937F93AA
S11301008F939F93AF93BF93EF93FF93E09162001C
S1130110F0916300309709F00995FF91EF91BF9139
S1130120AF919F918F917F916F915F914F913F918B
S11301302F910F900FBE0F901F9018951F920F9242
S11301400FB60F9211242F933F934F935F936F93A6
S11301507F938F939F93AF93BF93EF93FF93E0911C
S11301606000F0916100309709F00995FF91EF91DB
S1130170BF91AF919F918F917F916F915F914F91BB
S11301803F912F910F900FBE0F901F9018951F92C3
S11301900F920FB60F9211242F933F934F935F93B7
S11301A06F937F938F939F93AF93BF93EF93FF933B
S11301B0E0916C00F0916D00309709F00995FF9182
S11301C0EF91BF91AF919F918F917F916F915F91CB
S11301D04F913F912F910F900FBE0F901F90189544
S11301E0E0916A00F0916B00309709F009951F9235
S11301F00F920FB60F9211242F933F934F935F9357
S11302006F937F938F939F93AF93BF93EF93FF93DA
S1130210E0916800F0916900309709F00995FF9129
S1130220EF91BF91AF919F918F917F916F915F916A
S11302304F913F912F910F900FBE0F901F901895E3
S11302401F920F920FB60F9211242F933F934F9347
S11302505F936F937F938F939F93AF93BF93EF932A
S1130260FF93E0916600F0916700309709F00995DB
S1130270FF91EF91BF91AF919F918F917F916F917A
S11302805F914F913F912F910F900FBE0F901F9050
S113029018951F920F920FB60F9211242F933F932C
S11302A04F935F936F937F938F939F93AF93BF937A
S11302B0EF93FF93E0917200F0917300309709F08F
S11302C00995FF91EF91BF91AF919F918F917F918C
S11302D06F915F914F913F912F910F900FBE0F90AF
S11302E01F9018951F920F920FB60F9211242F93FF
S11302F03F934F935F936F937F938F939F93AF93AA
S1130300BF93EF93FF93E0917400F09175003097E1
S113031009F00995FF91EF91BF91AF919F918F9152
S11303207F916F915F914F913F912F910F900FBEED
S11303300F901F9018951F920F920FB60F921124D1
S11303402F933F934F935F936F937F938F939F93D9
S1130350AF93BF93EF93FF93E0917000F09171001E
S1130360309709F00995FF91EF91BF91AF919F915B
S11303708F917F916F915F914F913F912F910F904A
S11303800FBE0F901F9018951F920F920FB60F92E9
S113039011242F933F934F935F936F937F938F9386
S11303A09F93AF93BF93EF93FF93E0916E00F0910F
S11303B06F00309709F00995FF91EF91BF91AF91CC
S11303C09F918F917F916F915F914F913F912F9169
S11103D00F900FBE0F901F901895F894FFCF5A
S9030000FC
