:100000000C944F000C94ED070C9416080C941D08EA
:100010000C94E5090C94BC090C946C000C946C00D5
:100020000C946C000C946C000C946A090C94930969
:100030000C946C000C946C000C946C000C946C0090
:100040000C9446080C946C000C946C000C946C009E
:100050000C946C006809650962095F095C0959091B
:1000600056095409C608C6084E094C0949094609EB
:10007000E1084309E10840093D093A0938092E0918
:1000800019099908240999082409990824090209D9
:100090000E09F4080409F4080409F40804091124F9
:1000A0001FBECFE5D8E0DEBFCDBF10E0A0E6B0E0D8
:1000B000ECE2F4E102C005900D92AE3DB107D9F734
:1000C00020E0AEEDB0E001C01D92A83FB207E1F71D
:1000D0000E94E4030C94140A0C9400008091E20046
:1000E0008F5F8093E20008950F931F932FEF40914D
:1000F0006A0050916B0060916C0070916D0080916E
:100100006E000E9476088EE690E00E946F0880E301
:1001100090E00E94E90340E060E083E390E00E9409
:100120005D0740E061E083E390E00E945D0740E00E
:1001300062E083E390E00E945D0740E063E083E3D8
:1001400090E00E945D0740E064E083E390E00E945D
:100150005D0740E065E083E390E00E945D07009169
:100160006000109161002091620030916300409125
:100170006400509165006091660070916700809105
:100180006800909169000E9426040E94F70489E8A3
:1001900090E00E9400072FEF81EE94E02150804014
:1001A0009040E1F700C000000E94AF0683E990E0B4
:1001B0001F910F910C940007CDEC009160001091FD
:1001C0006100209162003091630040916400509181
:1001D0006500609166007091670080916800909161
:1001E00069000E946F048093F7008F3F09F468C193
:1001F000813309F0C5C20E94AF0684EA90E00E94F4
:1002000000072FEF85EA9EE0215080409040E1F703
:1002100000C0000000916000109161002091620018
:1002200030916300409164005091650060916600D8
:100230007091670080916800909169000E946F043E
:100240008093DF008091DF008F3F21F38091DF00FA
:100250000E945F062FEF85EA9EE02150804090408B
:10026000E1F700C000000091600010916100209152
:10027000620030916300409164005091650060918C
:1002800066007091670080916800909169000E94FB
:100290006F048093DE008091DE008F3F21F3809118
:1002A000DE000E945F062FEF85EA9EE0215080402D
:1002B0009040E1F700C000008091DF009091DE00E7
:1002C0009053880F8056282F220F220F280F920F4D
:1002D0009093E0000E94AF068FE99FE00197F1F74D
:1002E00000C0000080EB90E00E9400079FEF25EA2D
:1002F0008EE0915020408040E1F700C00000009166
:100300006000109161002091620030916300409183
:100310006400509165006091660070916700809163
:100320006800909169000E946F048093DF008091C3
:10033000DF008F3F21F38091DF000E945F069FEF77
:1003400025EA8EE0915020408040E1F700C0000097
:100350000091600010916100209162003091630073
:100360004091640050916500609166007091670053
:1003700080916800909169000E946F048093DE0074
:100380008091DE008F3F21F38091DE000E945F06A6
:100390009FEF25EA8EE0915020408040E1F700C0B9
:1003A00000008091DF009091DE009053880F80560E
:1003B000282F220F220F280F920F9093E1000E9406
:1003C000AF068FE99FE00197F1F700C000008BEBCB
:1003D00090E00E9400079FEF25EA8EE091502040B8
:1003E0008040E1F700C000000091600010916100C2
:1003F000209162003091630040916400509165004B
:10040000609166007091670080916800909169002A
:100410000E946F048093DF008091DF008F3F21F303
:100420008091DF000E945F069FEF25EA8EE09150E9
:1004300020408040E1F700C0000000916000109172
:1004400061002091620030916300409164005091FE
:1004500065006091660070916700809168009091DE
:1004600069000E946F048093DE008091DE008F3F60
:1004700021F38091DE000E945F069FEF25EA8EE067
:10048000915020408040E1F700C000008091DF00E3
:100490009091DE009053880F8056282F220F220F54
:1004A000280F920F9093E2000E94AF068FE99FE021
:1004B0000197F1F700C0000083E990E00E94000777
:1004C00040E060E083E390E00E94920741E061E059
:1004D00083E390E00E94920741E062E083E390E0D2
:1004E0000E94920741E063E083E390E00E9492075C
:1004F00041E064E083E390E00E94920741E065E020
:1005000083E390E00E9492074091E2004C9F812D8E
:1005100011248695869586959AE0899F4019112425
:1005200061E080E390E00E94EC038FE19EE401979C
:10053000F1F700C0000041E060E083E390E00E943A
:10054000920740E061E083E390E00E94920741E07F
:1005500062E083E390E00E94920741E063E083E37E
:1005600090E00E94920741E064E083E390E00E9403
:10057000920741E065E083E390E00E94920740919A
:10058000E2004C9F412D112446954695469561E029
:1005900080E390E00E94EC038FE19EE40197F1F785
:1005A00000C0000041E060E083E390E00E94920719
:1005B00041E061E083E390E00E94920740E062E066
:1005C00083E390E00E94920741E063E083E390E0E0
:1005D0000E94920741E064E083E390E00E9492076A
:1005E00041E065E083E390E00E9492074091E100E2
:1005F0004C9F812D11248695869586959AE0899F3A
:100600004019112461E080E390E00E94EC038FE147
:100610009EE40197F1F700C0000041E060E083E351
:1006200090E00E94920741E061E083E390E00E9445
:10063000920741E062E083E390E00E94920740E08D
:1006400063E083E390E00E94920741E064E083E38B
:1006500090E00E94920741E065E083E390E00E9411
:1006600092074091E1004C9F412D112446954695FB
:10067000469561E080E390E00E94EC038FE19EE408
:100680000197F1F700C0000041E060E083E390E0F3
:100690000E94920741E061E083E390E00E949207AC
:1006A00041E062E083E390E00E94920741E063E072
:1006B00083E390E00E94920740E064E083E390E0EF
:1006C0000E94920741E065E083E390E00E94920778
:1006D0004091E0004C9F812D11248695869586954A
:1006E0009AE0899F4019112461E080E390E00E9424
:1006F000EC038FE19EE40197F1F700C0000041E0B8
:1007000060E083E390E00E94920741E061E083E3D0
:1007100090E00E94920741E062E083E390E00E9453
:10072000920741E063E083E390E00E94920741E09A
:1007300064E083E390E00E94920740E065E083E399
:1007400090E00E9492074091E0004C9F412D1124BF
:1007500046954695469561E080E390E00E94EC0363
:100760008091E2008C3341F18091E1008C33E1F023
:100770008091E000883109F020CD1092E0001DCD7D
:100780000E94AF0686EC90E00E9400079FEF25EAEA
:100790008EE0915020408040E1F700C0000083E9E6
:1007A00090E00E9400078CCE1092E1008091E00062
:1007B0008F5F8093E000DCCF1092E2008091E10037
:1007C0008F5F8093E100D0CF0E9474000E94DC0014
:1007D000FFCF6FEF0C94C207CF93DF93CDB7DEB797
:1007E0002A970FB6F894DEBF0FBECDBF2AE0EFE622
:1007F000F0E0DE01119601900D922A95E1F7662353
:10080000E1F0613089F4E1E0F0E0EC0FFD1FE40F6E
:10081000F11D60812A960FB6F894DEBF0FBECDBFE2
:10082000DF91CF910C94C5072A960FB6F894DEBFDE
:100830000FBECDBFDF91CF910895E1E0F0E0EC0F66
:10084000FD1FE40FF11D60816095E4CF0F931F93AE
:10085000CF93DF93CDB7DEB72A970FB6F894DEBFFC
:100860000FBECDBF09831A833C834D835E836F83A4
:10087000788789879A8709811A8140E0622FC801A9
:100880000E945D0740E06C81C8010E945D0740E066
:100890006D81C8010E945D0740E06E81C8010E9421
:1008A0005D0742E06F81C8010E945D0742E06885F4
:1008B000C8010E945D0742E06985C8010E945D078A
:1008C00042E06A85C8012A960FB6F894DEBF0FBED3
:1008D000CDBFDF91CF911F910F910C945D078F9247
:1008E0009F92AF92BF92CF92DF92EF92FF920F93BF
:1008F0001F93CF93DF93CDB7DEB76A970FB6F89407
:10090000DEBF0FBECDBF098B1A8B2B8B3C8B4D8B63
:100910005E8B6F8B788F898F9A8F09891A8980E116
:10092000E9E7F0E0DE01119601900D928A95E1F77A
:100930009B88AC88BD88CE88E12CF12C88248A94D1
:1009400041E0692DC8010E94920741E06A2DC8016B
:100950000E94920741E06B2DC8010E94920741E07E
:100960006C2DC8010E94920740E06E2DC8010E94C4
:100970009207D12C64E06D0DC8010E94AF07882357
:10098000F9F0D39494E0D912F5CF8FEFE81AF80A72
:1009900094E0E916F104A1F6882D6A960FB6F89452
:1009A000DEBF0FBECDBFDF91CF911F910F91FF90A2
:1009B000EF90DF90CF90BF90AF909F908F90089571
:1009C000F701EE0FFF1FEE0FFF1FED0DF11D81E090
:1009D00090E08C0F9D1FE80FF91F80808FEFE81AC1
:1009E000F80A94E0E916F10409F0AACFD5CF2FEF69
:1009F00083EC99E0215080409040E1F700C0000076
:100A000060EF86E390E00E94C20740E060E086E38A
:100A100090E00E945D0740E062E086E390E00E9483
:100A20005D0740E061E086E390E00E945D07A998E1
:100A30008FE99FE00197F1F700C0000062E082E4D7
:100A40000E94C80740E060E086E390E00E949207C1
:100A500041E062E086E390E00E9492078FE39FE12D
:100A60000197F1F700C0000040E062E086E390E00B
:100A70000E9492078FE39FE10197F1F700C0000009
:100A800060E282E40E94C80740E060E086E390E014
:100A90000E94920741E062E086E390E00E949207A4
:100AA0008FE39FE10197F1F700C0000040E062E0B2
:100AB00086E390E00E9492078FE39FE10197F1F7B0
:100AC00000C000008FE99FE00197F1F700C000002F
:100AD0008FE99FE00197F1F700C0000068E282E42F
:100AE0000E94C80740E060E086E390E00E94920721
:100AF00041E062E086E390E00E9492078FE39FE18D
:100B00000197F1F700C0000040E062E086E390E06A
:100B10000E9492078FE39FE10197F1F700C0000068
:100B200060E882E40E94C80740E060E086E390E06D
:100B30000E94920741E062E086E390E00E94920703
:100B40008FE39FE10197F1F700C0000040E062E011
:100B500086E390E00E9492078FE39FE10197F1F70F
:100B600000C000008FE99FE00197F1F700C000008E
:100B70008FE99FE00197F1F700C000006EE082E48A
:100B80000E94C80740E060E086E390E00E94920780
:100B900041E062E086E390E00E9492078FE39FE1EC
:100BA0000197F1F700C0000040E062E086E390E0CA
:100BB0000E9492078FE39FE10197F1F700C00000C8
:100BC00060EE82E40E94C80740E060E086E390E0C7
:100BD0000E94920741E062E086E390E00E94920763
:100BE0008FE39FE10197F1F700C0000040E062E071
:100BF00086E390E00E9492078FE39FE10197F1F76F
:100C000000C000008FE99FE00197F1F700C00000ED
:100C10008FE99FE00197F1F700C0000061E082E4F6
:100C20000E94C80740E060E086E390E00E949207DF
:100C300041E062E086E390E00E9492078FE39FE14B
:100C40000197F1F700C0000040E062E086E390E029
:100C50000E9492078FE39FE10197F1F700C0000027
:100C600060E182E40E94C80740E060E086E390E033
:100C70000E94920741E062E086E390E00E949207C2
:100C80008FE39FE10197F1F700C0000040E062E0D0
:100C900086E390E00E9492078FE39FE10197F1F7CE
:100CA00000C000008FE99FE00197F1F700C000004D
:100CB0008FE39CE90197F1F700C000000895CF93FE
:100CC000C82F682F82E40E94C80741E060E086E3F5
:100CD00090E00E94920741E062E086E390E00E948B
:100CE00092078FE39FE10197F1F700C0000040E019
:100CF00062E086E390E00E9492078FE39FE1019714
:100D0000F1F700C000006C2F6295607F82E40E94C2
:100D1000C80741E060E086E390E00E94920741E06E
:100D200062E086E390E00E9492078FE39FE10197E3
:100D3000F1F700C0000040E062E086E390E00E942E
:100D400092078FE39FE10197F1F700C000008FE960
:100D50009FE00197F1F700C00000CF91089561E096
:100D600082E40E94C80740E060E086E390E00E94D1
:100D7000920741E062E086E390E00E9492078FE3F1
:100D80009FE10197F1F700C0000040E062E086E3D8
:100D900090E00E9492078FE39FE10197F1F700C076
:100DA000000060E182E40E94C80740E060E086E362
:100DB00090E00E94920741E062E086E390E00E94AA
:100DC00092078FE39FE10197F1F700C0000040E038
:100DD00062E086E390E00E9492078FE39FE1019733
:100DE000F1F700C000008FE99FE00197F1F700C024
:100DF00000008FE39CE90197F1F700C0000008951F
:100E00001F93CF93DF93FC011081112309F451C08C
:100E1000EC012196612F82E40E94C80741E060E066
:100E200086E390E00E94920741E062E086E390E072
:100E30000E9492078FE39FE10197F1F700C0000045
:100E400040E062E086E390E00E949207EFE3FFE17A
:100E50003197F1F700C00000612F6295607F82E456
:100E60000E94C80741E060E086E390E00E9492079C
:100E700041E062E086E390E00E9492078FE39FE109
:100E80000197F1F700C0000040E062E086E390E0E7
:100E90000E949207EFE3FFE13197F1F700C00000F5
:100EA0008FE99FE00197F1F700C00000199111113F
:100EB000B1CFDF91CF911F910895FC01413019F11D
:100EC00098F0423081F4218181E090E0062E01C04B
:100ED000880F0A94EAF7982F909592239183928134
:100EE000982B928308950895218181E090E0062E49
:100EF00001C0880F0A94EAF7282B218392818095FC
:100F0000892382830895218181E090E0062E01C02B
:100F1000880F0A94EAF780952823218392819823E9
:100F200092830895442371F04130C1F4FC01428161
:100F300021E030E0062E01C0220F0A94EAF7422B8E
:100F400042830895FC01428121E030E0062E01C079
:100F5000220F0A94EAF72095242322830895FC01A6
:100F6000208181E090E0062E02C0880F991F0A942C
:100F7000E2F730E08223932302C0959587956A9526
:100F8000E2F70895FC0161830895FC0162830895EE
:100F9000607F823471F028F0833489F08434A9F0C2
:100FA00008958134C9F48BB38F708BBB8BB3862BC0
:100FB0008BBB88B38F7088BB88B3862B88BB85B307
:100FC0008F7085BB85B3862B85BB82B38F7082BB48
:100FD00082B3862B82BB089508951F920F920FB69D
:100FE0000F9211242F933F934F935F936F937F93AF
:100FF0008F939F93AF93BF93EF93FF93E091E9009B
:10100000F091EA00309709F00995FF91EF91BF91B7
:10101000AF919F918F917F916F915F914F913F9190
:101020002F910F900FBE0F901F901895E091E70041
:10103000F091E800309709F009951F920F920FB6D2
:101040000F9211242F933F934F935F936F937F934E
:101050008F939F93AF93BF93EF93FF93E091E5003E
:10106000F091E600309709F00995FF91EF91BF915B
:10107000AF919F918F917F916F915F914F913F9130
:101080002F910F900FBE0F901F9018951F920F92E7
:101090000FB60F9211242F933F934F935F936F934B
:1010A0007F938F939F93AF93BF93EF93FF93E091C1
:1010B000E300F091E400309709F00995FF91EF917A
:1010C000BF91AF919F918F917F916F915F914F9160
:1010D0003F912F910F900FBE0F901F901895009782
:1010E00021F09093EE008093ED0008950F931F93ED
:1010F000CF93DF9300D000D000D0CDB7DEB7942FD0
:101100004983E52F5A83462F6B83372F7C838D834A
:10111000992339F19130D1F4E150E33078F110E0C6
:1011200050E04B30510590F5FA01E65DFF4F0C940D
:101130000E0A40E067E080E390E02E830E945D07A6
:101140001F7E10622E8115BD09BF23BD26960FB6E6
:10115000F894DEBF0FBECDBFDF91CF911F910F91ED
:101160000895E150E33028F110E050E04A30510595
:1011700040F5FA01EB5CFF4F0C940E0AF0E0E852E8
:10118000FF4F108150E04B30510570F29FB79068CF
:101190009FBF313009F466C0323009F461C000E00D
:1011A00090E08830910578F6FC01E15CFF4F0C94EB
:1011B0000E0AF0E0E552FF4F108150E04A30510531
:1011C000C0F29FB790689FBF313009F44FC03230F2
:1011D00009F44AC000E090E08830910578F4FC0101
:1011E000E95BFF4F0C940E0A40E063E086E390E079
:1011F0002E830E945D071F7E10622E8113BF09BFE0
:101200002CBFA4CF1F7CFACF40E063E086E390E0E0
:101210002E830E945D0710632E81F0CF40E063E0D3
:1012200086E390E02E830E945D071F7D10612E8172
:10123000E5CF40E067E080E390E02E830E945D0709
:101240001F7D10612E817FCF40E067E080E390E05A
:101250002E830E945D0710632E8175CF1F7C73CF94
:1012600000E89ECF00E49CCF02E0B5CF01E0B3CF11
:101270001760A7CF1E7F1660A4CF1D7F1560A1CF7A
:101280001C7F14609ECF1B7F13609BCF1A7F126060
:1012900098CF197F116095CF187F93CF92B5906149
:1012A00092BD1D7F156072CF176070CF1E7F1660D4
:1012B0006DCF1D7F15606ACF1C7F146067CF1B7FC9
:1012C000136064CF1A7F126061CF197F11605ECF07
:1012D000187F5CCF1F920F920FB60F9211242F939D
:1012E0003F934F935F936F937F938F939F93AF93AE
:1012F000BF93EF93FF93E091EF00F091F0003097F0
:1013000009F00995FF91EF91BF91AF919F918F9156
:101310007F916F915F914F913F912F910F900FBEF1
:101320000F901F9018951F920F920FB60F921124D5
:101330002F933F934F935F936F937F938F939F93DD
:10134000AF93BF93EF93FF93E091F100F091F20020
:10135000309709F00995FF91EF91BF91AF919F915F
:101360008F917F916F915F914F913F912F910F904E
:101370000FBE0F901F9018951F920F920FB60F92ED
:1013800011242F933F934F935F936F937F938F938A
:101390009F93AF93BF93EF93FF93E091ED00F09194
:1013A000EE00309709F00995FF91EF91BF91AF9151
:1013B0009F918F917F916F915F914F913F912F916D
:1013C0000F900FBE0F901F9018951F920F920FB69F
:1013D0000F9211242F933F934F935F936F937F93BB
:1013E0008F939F93AF93BF93EF93FF93E091EB00A5
:1013F000F091EC00309709F00995FF91EF91BF91C2
:10140000AF919F918F917F916F915F914F913F919C
:101410002F910F900FBE0F901F901895EE0FFF1F8A
:0C1420000590F491E02D0994F894FFCFA2
:10142C003900000102030405060701000A01003F10
:10143C00065B4F666D7D477F6F37383941343536E3
:10144C00423132334323302A4448656C6C6F2C5341
:10145C00697200436C69636B203120546F20737484
:10146C0061727400456E74657220486F75723D0030
:10147C00456E746572204D696E3D00456E746572E3
:10148C00205365633D0057726F6E672043686F6928
:0E149C0063652C5472792100084048084048CE
:00000001FF
