S01500004156525F33325F4472697665722E7372656397
S11300000C944F000C946F050C9498050C949F0568
S11300100C9473060C944A060C946C000C946C00BB
S11300200C946C000C946C000C94F8050C94210650
S11300300C946C000C9467040C94B9040C94900414
S11300400C94C8050C946C000C946C000C946C001B
S11300500C946C008E078B078807850782077F073F
S11300607C077A07EC06EC06740772076F076C07C7
S11300700707690707076607630760075E075407F2
S11300803F07BF064A07BF064A07BF064A072807B5
S113009034071A072A071A072A071A072A071124F6
S11300A01FBECFE5D8E0DEBFCDBF10E0A0E6B0E0D4
S11300B0E0E3FFE002C005900D92AC3AB107D9F736
S11300C020E0ACEAB0E001C01D92A73CB207E1F722
S11300D00E9413010C9496070C9400008091C400B4
S11300E09091C50001969093C5008093C400089533
S11300F00F931F932EE440916A0050916B0060911E
S11301006C0070916D0080916E000E949C068EE6DA
S113011090E00E94F105009160001091610020912F
S113012062003091630040916400509165006091D9
S113013066007091670080916800909169000E9448
S113014018010E94E9018FE790E00E940A042FEF52
S113015081EE94E0215080409040E1F700C000001F
S11301600E94B90389E890E01F910F910C940A044E
S11301700F931F93CF93DF93C1E0D0E006C080912B
S1130180C2009091C300892B91F58091C400909195
S1130190C500893E934020F0D093C300C093C200B1
S11301A00091600010916100209162003091630021
S11301B04091640050916500609166007091670001
S11301C080916800909169000E9461018093C6004B
S11301D08FEF91EE24E0815090402040E1F700C081
S11301E000008091C6008F3F51F2823371F00E946B
S11301F0B90365E082E00E94510389E990E0DF9150
S1130200CF911F910F910C940A040E94B90365E0E9
S113021082E00E9451038FE890E0DF91CF911F911B
S11302200F910C940A040E9478000E94B800FFCF3A
S11302300F931F93CF93DF93CDB7DEB72A970FB6F3
S1130240F894DEBF0FBECDBF09831A833C834D8370
S11302505E836F83788789879A8709811A8140E052
S1130260622FC8010E94E20440E06C81C8010E9430
S1130270E20440E06D81C8010E94E20440E06E8126
S1130280C8010E94E20442E06F81C8010E94E204B6
S113029042E06885C8010E94E20442E06985C80121
S11302A00E94E20442E06A85C8012A960FB6F894D7
S11302B0DEBF0FBECDBFDF91CF911F910F910C9484
S11302C0E2048F929F92AF92BF92CF92DF92EF920D
S11302D0FF920F931F93CF93DF93CDB7DEB76A9747
S11302E00FB6F894DEBF0FBECDBF098B1A8B2B8BD4
S11302F03C8B4D8B5E8B6F8B788F898F9A8F09899E
S11303001A8980E1EFE6F0E0DE01119601900D928A
S11303108A95E1F79B88AC88BD88CE88E12CF12CC6
S113032088248A9441E0692DC8010E94170541E0A0
S11303306A2DC8010E94170541E06B2DC8010E9477
S1130340170541E06C2DC8010E94170540E06E2D91
S1130350C8010E941705D12C64E06D0DC8010E94EC
S113036034058823F9F0D39494E0D912F5CF8FEFB4
S1130370E81AF80A94E0E916F104A1F6882D6A96C1
S11303800FB6F894DEBF0FBECDBFDF91CF911F91A2
S11303900F91FF90EF90DF90CF90BF90AF909F9020
S11303A08F900895F701EE0FFF1FEE0FFF1FED0D65
S11303B0F11D81E090E08C0F9D1FE80FF91F8080F4
S11303C08FEFE81AF80A94E0E916F10409F0AACFCD
S11303D0D5CF2FEF83EC99E0215080409040E1F796
S11303E000C0000060EF86E390E00E94470540E013
S11303F060E086E390E00E94E20440E062E086E38D
S113040090E00E94E20440E061E086E390E00E9414
S1130410E204A9988FE99FE00197F1F700C000007A
S113042062E082E40E944A0540E060E086E390E0F6
S11304300E94170541E062E086E390E00E94170500
S11304408FE39FE10197F1F700C0000040E062E014
S113045086E390E00E9417058FE39FE10197F1F78F
S113046000C0000060E282E40E944A0540E060E0CF
S113047086E390E00E94170541E062E086E390E0A5
S11304800E9417058FE39FE10197F1F700C0000078
S113049040E062E086E390E00E9417058FE39FE16D
S11304A00197F1F700C000008FE99FE00197F1F791
S11304B000C000008FE99FE00197F1F700C0000041
S11304C068E282E40E944A0540E060E086E390E04E
S11304D00E94170541E062E086E390E00E94170560
S11304E08FE39FE10197F1F700C0000040E062E074
S11304F086E390E00E9417058FE39FE10197F1F7EF
S113050000C0000060E882E40E944A0540E060E028
S113051086E390E00E94170541E062E086E390E004
S11305200E9417058FE39FE10197F1F700C00000D7
S113053040E062E086E390E00E9417058FE39FE1CC
S11305400197F1F700C000008FE99FE00197F1F7F0
S113055000C000008FE99FE00197F1F700C00000A0
S11305606EE082E40E944A0540E060E086E390E0A9
S11305700E94170541E062E086E390E00E941705BF
S11305808FE39FE10197F1F700C0000040E062E0D3
S113059086E390E00E9417058FE39FE10197F1F74E
S11305A000C0000060EE82E40E944A0540E060E082
S11305B086E390E00E94170541E062E086E390E064
S11305C00E9417058FE39FE10197F1F700C0000037
S11305D040E062E086E390E00E9417058FE39FE12C
S11305E00197F1F700C000008FE99FE00197F1F750
S11305F000C000008FE99FE00197F1F700C0000000
S113060061E082E40E944A0540E060E086E390E015
S11306100E94170541E062E086E390E00E9417051E
S11306208FE39FE10197F1F700C0000040E062E032
S113063086E390E00E9417058FE39FE10197F1F7AD
S113064000C0000060E182E40E944A0540E060E0EE
S113065086E390E00E94170541E062E086E390E0C3
S11306600E9417058FE39FE10197F1F700C0000096
S113067040E062E086E390E00E9417058FE39FE18B
S11306800197F1F700C000008FE99FE00197F1F7AF
S113069000C000008FE39CE90197F1F700C000005F
S11306A00895CF93813009F455C0823009F050C0C9
S11306B08FEF860F803108F457C0C0E060E882E411
S11306C00E944A0540E060E086E390E00E9417053E
S11306D041E062E086E390E00E9417058FE39FE12A
S11306E00197F1F700C0000040E062E086E390E08B
S11306F00E9417058FE39FE10197F1F700C0000006
S11307006C2F82E40E944A0540E060E086E390E0BA
S11307100E94170541E062E086E390E00E9417051D
S11307208FE39FE10197F1F700C0000040E062E031
S113073086E390E00E9417058FE39FE10197F1F7AC
S113074000C000008FE99FE00197F1F700C00000AE
S1130750CF9108958FEF860F803108F0AECF6158A6
S1130760C62FC295C07FABCF6154C62FC295C07F40
S1130770A6CF61E082E40E944A0540E060E086E39F
S113078090E00E94170541E062E086E390E00E9459
S113079017058FE39FE10197F1F700C0000040E0E7
S11307A062E086E390E00E9417058FE39FE10197E2
S11307B0F1F700C0000060E182E40E944A0540E0D5
S11307C060E086E390E00E94170541E062E086E382
S11307D090E00E9417058FE39FE10197F1F700C0B5
S11307E0000040E062E086E390E00E9417058FE39A
S11307F09FE10197F1F700C000008FE99FE00197A6
S1130800F1F700C000008FE39CE90197F1F700C005
S1130810000008951F93CF93DF93FC0110811123EF
S113082009F451C0EC012196612F82E40E944A052B
S113083041E060E086E390E00E94170541E062E059
S113084086E390E00E9417058FE39FE10197F1F79B
S113085000C0000040E062E086E390E00E941705DB
S1130860EFE3FFE13197F1F700C00000612F6295DB
S1130870607F82E40E944A0541E060E086E390E004
S11308800E94170541E062E086E390E00E941705AC
S11308908FE39FE10197F1F700C0000040E062E0C0
S11308A086E390E00E941705EFE3FFE13197F1F74B
S11308B000C000008FE99FE00197F1F700C000003D
S11308C019911111B1CFDF91CF911F9108951F920A
S11308D00F920FB60F9211242F933F934F935F9370
S11308E06F937F938F939F93AF93BF93EF93FF93F4
S11308F0E091B000F091B100309709F00995FF91B3
S1130900EF91BF91AF919F918F917F916F915F9183
S11309104F913F912F910F900FBE0F901F901895FC
S11309201F920F920FB60F9211242F933F934F9360
S11309305F936F937F938F939F93AF93BF93EF9343
S1130940FF93E091AE00F091AF00309709F0099564
S1130950FF91EF91BF91AF919F918F917F916F9193
S11309605F914F913F912F910F900FBE0F901F9069
S113097018951F920F920FB60F9211242F933F9345
S11309804F935F936F937F938F939F93AF93BF9393
S1130990EF93FF93E091AC00F091AD00309709F034
S11309A00995FF91EF91BF91AF919F918F917F91A5
S11309B06F915F914F913F912F910F900FBE0F90C8
S11309C01F901895FC01413019F198F0423081F4E0
S11309D0218181E090E0062E01C0880F0A94EAF795
S11309E0982F9095922391839281982B92830895C6
S11309F00895218181E090E0062E01C0880F0A94B9
S1130A00EAF7282B21839281809589238283089594
S1130A10218181E090E0062E01C0880F0A94EAF754
S1130A2080952823218392819823928308954423D7
S1130A3071F04130C1F4FC01428121E030E0062E26
S1130A4001C0220F0A94EAF7422B42830895FC0165
S1130A50428121E030E0062E01C0220F0A94EAF719
S1130A602095242322830895FC01208181E090E0D5
S1130A70062E02C0880F991F0A94E2F730E0822301
S1130A80932302C0959587956A95E2F70895FC0132
S1130A9061830895607F823471F028F0833489F093
S1130AA08434A9F008958134C9F48BB38F708BBB5F
S1130AB08BB3862B8BBB88B38F7088BB88B3862B94
S1130AC088BB85B38F7085BB85B3862B85BB82B30A
S1130AD08F7082BB82B3862B82BB089508951F92C8
S1130AE00F920FB60F9211242F933F934F935F935E
S1130AF06F937F938F939F93AF93BF93EF93FF93E2
S1130B00E091B800F091B900309709F00995FF9190
S1130B10EF91BF91AF919F918F917F916F915F9171
S1130B204F913F912F910F900FBE0F901F901895EA
S1130B30E091B600F091B700309709F009951F9243
S1130B400F920FB60F9211242F933F934F935F93FD
S1130B506F937F938F939F93AF93BF93EF93FF9381
S1130B60E091B400F091B500309709F00995FF9138
S1130B70EF91BF91AF919F918F917F916F915F9111
S1130B804F913F912F910F900FBE0F901F9018958A
S1130B901F920F920FB60F9211242F933F934F93EE
S1130BA05F936F937F938F939F93AF93BF93EF93D1
S1130BB0FF93E091B200F091B300309709F00995EA
S1130BC0FF91EF91BF91AF919F918F917F916F9121
S1130BD05F914F913F912F910F900FBE0F901F90F7
S1130BE01895009721F09093BF008093BE0008955C
S1130BF01F920F920FB60F9211242F933F934F938E
S1130C005F936F937F938F939F93AF93BF93EF9370
S1130C10FF93E091BE00F091BF00309709F0099571
S1130C20FF91EF91BF91AF919F918F917F916F91C0
S1130C305F914F913F912F910F900FBE0F901F9096
S1130C4018951F920F920FB60F9211242F933F9372
S1130C504F935F936F937F938F939F93AF93BF93C0
S1130C60EF93FF93E091C000F091C100309709F039
S1130C700995FF91EF91BF91AF919F918F917F91D2
S1130C806F915F914F913F912F910F900FBE0F90F5
S1130C901F9018951F920F920FB60F9211242F9345
S1130CA03F934F935F936F937F938F939F93AF93F0
S1130CB0BF93EF93FF93E091BC00F091BD00309798
S1130CC009F00995FF91EF91BF91AF919F918F9199
S1130CD07F916F915F914F913F912F910F900FBE34
S1130CE00F901F9018951F920F920FB60F92112418
S1130CF02F933F934F935F936F937F938F939F9320
S1130D00AF93BF93EF93FF93E091BA00F091BB00D0
S1130D10309709F00995FF91EF91BF91AF919F91A1
S1130D208F917F916F915F914F913F912F910F9090
S1130D300FBE0F901F9018950F931F93CF93DF93BF
S1130D4000D000D000D0CDB7DEB7942F4983E52F73
S1130D505A83462F6B83372F7C838D83992339F1F4
S1130D609130D1F4E150E33078F110E050E04B30B1
S1130D70510590F5FA01E65DFF4F0C94900740E0B1
S1130D8067E080E390E02E830E94E2041F7E1062FD
S1130D902E8115BD09BF23BD26960FB6F894DEBF7C
S1130DA00FBECDBFDF91CF911F910F910895E150F8
S1130DB0E33028F110E050E04A30510540F5FA01E3
S1130DC0EB5CFF4F0C949007F0E0EA55FF4F108165
S1130DD050E04B30510570F29FB790689FBF31309F
S1130DE009F466C0323009F461C000E090E0883054
S1130DF0910578F6FC01E15CFF4F0C949007F0E05C
S1130E00E755FF4F108150E04A305105C0F29FB7BB
S1130E1090689FBF313009F44FC0323009F44AC0A2
S1130E2000E090E08830910578F4FC01E95BFF4F25
S1130E300C94900740E063E086E390E02E830E94E8
S1130E40E2041F7E10622E8113BF09BF2CBFA4CF02
S1130E501F7CFACF40E063E086E390E02E830E949B
S1130E60E20410632E81F0CF40E063E086E390E07B
S1130E702E830E94E2041F7D10612E81E5CF40E0A5
S1130E8067E080E390E02E830E94E2041F7D1061FE
S1130E902E817FCF40E067E080E390E02E830E94C4
S1130EA0E20410632E8175CF1F7C73CF00E89ECFC0
S1130EB000E49CCF02E0B5CF01E0B3CF1760A7CF29
S1130EC01E7F1660A4CF1D7F1560A1CF1C7F146008
S1130ED09ECF1B7F13609BCF1A7F126098CF197F20
S1130EE0116095CF187F93CF92B5906192BD1D7F0D
S1130EF0156072CF176070CF1E7F16606DCF1D7F97
S1130F0015606ACF1C7F146067CF1B7F136064CFAA
S1130F101A7F126061CF197F11605ECF187F5CCF9A
S1130F20EE0FFF1F0590F491E02D0994F894FFCF84
S1130F303900000102030405060700010702003717
S1130F40383941343536423132334323302A444828
S1130F50656C6C6F2C53697200332B3F3D35005721
S1130F60656C6C20446F6E650054696D652069730F
S10F0F70204F7665720008404808404895
S9030000FC
